:020000040800F2
:10000000C06E0020990100088F190008B917000878
:100010008D19000811030008BB1F00080000000034
:10002000000000000000000000000000931900081C
:10003000130300080000000091190008951900083A
:10004000B3010008B3010008B3010008B3010008C0
:10005000B3010008B3010008B3010008B3010008B0
:10006000B3010008B3010008B3010008B3010008A0
:10007000B3010008B3010008B3010008B301000890
:10008000B3010008B3010008B3010008B301000880
:10009000B3010008B3010008B3010008B301000870
:1000A000B3010008B3010008B3010008B301000860
:1000B000B3010008B3010008B3010008B301000850
:1000C000B3010008B3010008B3010008B301000840
:1000D000B3010008B3010008B3010008E91C0008DF
:1000E000B3010008B3010008B3010008B301000820
:1000F000B3010008B3010008B3010008B301000810
:10010000B3010008B3010008B3010008B3010008FF
:10011000B3010008B3010008B3010008B3010008EF
:10012000B3010008B3010008B3010008B3010008DF
:10013000B3010008B3010008B3010008B3010008CF
:10014000B3010008B3010008B3010008B3010008BF
:10015000B3010008B3010008B3010008B3010008AF
:10016000B3010008B3010008B3010008B30100089F
:10017000B3010008B3010008B3010008000000004B
:10018000B3010008DFF80CD000F0B0F800480047D9
:10019000A1440008C06E002006488047064800477A
:1001A000FEE7FEE7FEE7FEE7FEE7FEE7FEE7FEE727
:1001B000FEE7FEE7F1190008850100082DE9F05F70
:1001C0000546002092469B468846064681464024C6
:1001D0001BE0284641464746224600F076F8534643
:1001E0005A46C01A914110D311461846224600F0D3
:1001F0005DF82D1A67EB01084F46224601200021C9
:1002000000F054F817EB00094E41201EA4F1010440
:10021000DFDC484631462A464346BDE8F09F40EAC7
:1002200001039B0703D009E008C9121F08C0042A74
:10023000FAD203E011F8013B00F8013B521EF9D25B
:100240007047D2B201E000F8012B491EFBD2704783
:100250000022F6E710B513460A4604461946FFF792
:10026000F0FF204610BD30B504460020034600E0F4
:100270005B1C934203D2E05CCD5C401BF8D030BDE8
:1002800030B50B46014600202022012409E021FA66
:1002900002F59D4205D303FA02F5491B04FA02F563
:1002A0002844151EA2F10102F1DC30BD202A04DB36
:1002B000203A00FA02F1002070479140C2F1200379
:1002C00020FA03F3194390407047202A04DB203AB8
:1002D00021FA02F00021704721FA02F3D040C2F166
:1002E000200291400843194670470000064C074D14
:1002F00006E0E06840F0010394E8070098471034F6
:10030000AC42F6D3FFF742FF90A60008B0A6000863
:10031000FEE77047064908B509684FF4FA52B1FB89
:10032000F2F14143009100BF491E0091FBD208BD8C
:100330002800002038B50446006800F58050816927
:1003400041F480118161206800F58050806900903F
:100350000120FFF7DFFF2068009900F580508161E0
:1003600038BD00002DE9F041044621B14FF4006092
:10037000E060C000A060E0690025002861D0284648
:100380002368402619683A4A1140D4E902273A43C3
:10039000024342F400700843186020680768012097
:1003A00000F084F82068076020684660206846688E
:1003B000012000F07BF82068466020688560206896
:1003C000C560216888694FF64172104040F0800096
:1003D000886120688669012000F068F820688661DD
:1003E0002068C5612068C569012000F05FF82068B9
:1003F000C561226802F5805290691E4908401E4975
:1004000001439161206800F580508569012000F06A
:100410004DF8206800F5805085612068174900F587
:1004200080500160206800F580500568012000F0D0
:100430003DF8206800F580500560A069012803D0D0
:1004400009E04FF480609BE7206800F58050C169A7
:100450000B4A1143C16160690A4982880A640278C3
:10046000D0F8010042EA00204864BDE8F0810000B5
:100470000F8120FF233FDEF8040020028020C1020C
:10048000400001000080024090F83510022903D09E
:100490008021416501207047052180F835100068F2
:1004A000016821F0010101600020704731B500F0C2
:1004B00073FC009C0546601C02D00448007804448C
:1004C00000F06AFC401BA042FAD338BD1C0000209B
:1004D0002DE9F04390F845400025012C0DD04FF058
:1004E000010C80F845C0022480F8444044F2F457DF
:1004F0004FF000495E1E816217E00220BDE8F083E4
:1005000001EB4514C4F80090C5EBC51808EB48088A
:1005100002EB8808C4E90178B54204D204F120084E
:10052000C4F80C8000E0E1606D1C9D42E8D30268D5
:1005300002F58052D16080F844C0002180F8451057
:100540000846DBE72DE9F043914690F8452000246A
:10055000012A0AD0012680F84560022280F8442052
:100560004FF4801C5D1EC1621BE00220BDE8F083D9
:1005700001EB4412C2F800C0C4EBC41707EB4708F4
:1005800009EB88079760C7691FB9176847F44007E8
:100590001760AC4203D202F12007D76000E0D160BF
:1005A000641C9C42E4D3026802F58052116180F819
:1005B0004460002180F845100846D7E710B590F850
:1005C0004510012913D0012280F84520022180F82E
:1005D0004410816A0C680023002C27DB0C68E405BA
:1005E00018D5846B641C8463012C02D002E00220C5
:1005F00010BD016341630C68C4F30D44241FC46340
:10060000046BA4680464C96840F8281F0277437724
:10061000002010BD0C68A40503D58263C0E90C134B
:1006200002E0846B641C8463C968816200F8442F13
:100630004370012010BD00002DE9FC474FF000057C
:100640000400A946009503D094F8440018B107E0CF
:100650000120BDE8FC8784F84550204600F0D6F81C
:100660006248016841F480410160006800F4804004
:1006700001905F48016821F4000101600168226A6D
:1006800011430160206800F58050016841F00101CC
:10069000016000F081FB06464FF4FA7709E000BFE5
:1006A00000F07AFB801BB84203D9032004F8440F02
:1006B0005FE0206800F580500068C007F0D1206836
:1006C000006920F01C0600F059FD4A494A4A0144DD
:1006D000914202D246F008060EE04849484A0144D9
:1006E000914202D246F00C0606E0464908444649CB
:1006F000884201D346F00406206806614FF40042A8
:100700000021204600F00AFA0126A8BBFF20FFF7CF
:10071000CDFE606888B300F03FFB804641F2883729
:100720006A460121204600F0F1F800F035FBA0EB0D
:100730000800B84217D800984007F1D54FF480520E
:100740000021204600F0EAF9B0B900F025FB804610
:100750006A460121204600F0D9F800F01DFBA0EB0D
:100760000800B8420AD901212046FFF7FBFD04F832
:10077000446F032065706CE724E018E00098800661
:10078000E6D56A461F21204600F0C0F8D0B900988F
:10079000C10603D54FF40061E16000E0E560400769
:1007A00001D5A56019E04FF48040A06015E0E06835
:1007B000A168C00840EA510082B20021204600F042
:1007C000ADF930B101212046FFF7CCFD84F844603B
:1007D0003EE740F6FF70FFF769FE49462046FFF707
:1007E000C1FD84F84460002033E700004438024033
:1007F0000438014000D3CEFEC0E1E40040F1E9FD41
:1008000040787D0100796CFC005A6202F0B587B037
:10081000044614216846FFF71BFD364920688842CC
:1008200065D135480024016841F00071016001681C
:1008300001F000710591016841F08061016001687B
:1008400001F080610591016841F00061016001687B
:1008500001F000610591016841F004010160016847
:1008600001F004010591016841F001010160016896
:1008700001F001010591016841F002010160016888
:1008800001F002010591016841F04001016000683A
:10089000022500F0400005903220CDE9000502AAB3
:1008A00003260B2782E8D0006946144800F072F94D
:1008B0008620CDE9000502AA694682E8D0001048EA
:1008C00000F068F92803CDE9000502AA694682E82C
:1008D000D0000C4800F05EF94FF42050CDE900053F
:1008E00002AA694682E8D000074800F053F907B031
:1008F000F0BD000000800240303802400008024095
:100900000000024000040240001802402DE9F047B8
:10091000044690F84400914682281DD0822084F835
:100920004400226810694FF6FF7500F01C03208A0E
:1009300005EAC02018434FF4F86303EA811101432C
:1009400021F0020040F00105156100F025FA06468D
:1009500001274FF4803810E00220BDE8F08700BF87
:1009600000F01AFA801B404505D304F8447F0020AC
:1009700060700320F1E720680569E807F0D120687E
:10098000406981B2C9F8001084F844700020E4E79F
:10099000F8B5044690F84500012839D0012584F8BF
:1009A0004550022084F8440020680026016841F088
:1009B000080101602068006800902846FFF7AAFC43
:1009C0002168009808602068016841F00401016016
:1009D0002068006800900120FFF79CFC21680098C7
:1009E00008602046FFF7A6FC206800F5805081696A
:1009F00041F400518161206800F58050816941F027
:100A00000201816184F8445084F845600020F8BDFB
:100A10000220F8BDF0B590F845200023012A11D03E
:100A2000012780F84570022280F84420002459B143
:100A3000C66A3268002A0ADA122100F8441F44709C
:100A40000120F0BD0220F0BD00F8447FF7E740F23E
:100A5000F455A9420BD9B1FBF5FCB1FBF5F205FB4E
:100A60001C1CBCF1000F00D0521C012A43D132687B
:100A700042F040523260C26AC1F30C015160C16A57
:100A80000A6842F000420A60C16AC968C16234E083
:100A9000D6F800C02CF0405CC6F800C033B9C66A76
:100AA000D6F800C04CF0805CC6F800C0C66A75601D
:100AB000561EB34214D1C66AD6F800C04CF0005C92
:100AC000C6F800C0C2F10106C6EBC61606EB460624
:100AD000D0F82CC001EB8606C6F30C06CCF80460F7
:100AE000C66AD6F800C04CF0004CC6F800C0C66A12
:100AF0005B1CF668C6629342CAD3016801F5805157
:100B00004A69520705D504224A61016801F58051FE
:100B10004C6000F8447F44700020F0BD2DE9F041A6
:100B2000044690F8440042281ED0422084F8440035
:100B3000236818694FF6FF7600F01C05208A06EA44
:100B4000C02028434FF4F86505EA8111014390B2B3
:100B500041F0030558612068056100F01DF9064663
:100B600001274FF4803810E00220BDE8F08100BF7B
:100B700000F012F9801B404505D304F8447F0020A3
:100B800060700320F1E720680569E807F0D184F878
:100B90004470EAE72DE9FC4FDFF8C0A100230125EE
:100BA0000AF1040B03244FF00F0C0BF1040ECEE0FE
:100BB000324605FA03F6324072D04F68012F05D055
:100BC000022F03D0112F01D0122F17D1D0F8089087
:100BD0005F0004FA07F829EA08090097D1F80C80A9
:100BE00008FA07F848EA0908C0F808804768B743D8
:100BF0000E79C6F300169E403E434660C6684FEA33
:100C0000430804FA08F7BE4301978F6807FA08F70C
:100C10003743C7604E68022E01D0122E13D1DE0872
:100C200000EB86060096366A5F07FF0E0CFA07F99E
:100C300026EA0906D1F8109009FA07F949EA0609E7
:100C4000009EC6F820900668019FBE430F7907F00A
:100C5000030707FA08F7374307604E68F60075D5B3
:100C60003F4E376847F480473760366823F0030704
:100C700006F4804600963B4E3E44B146D6F80868DE
:100C80009F074FEA17780CFA08F7BE43364FB84271
:100C900001D1002729E0354FB84202D1012724E0D5
:100CA00054E0334FB84201D102271EE0314FB84221
:100CB00001D1032719E0304FB84201D1042714E0D5
:100CC0002E4FB84201D105270FE02D4FB84201D178
:100CD00006270AE02B4FB84201D1072705E02A4F2B
:100CE000B84201D1082700E0092707FA08F737437F
:100CF000C9F80878DAF800605746D1F804809643BE
:100D00005FEAC83800D516433E60DBF800605F46F6
:100D1000D1F8048096435FEA883800D516433E60D8
:100D2000DEF800607746D1F8048096435FEAC82871
:100D300000D516433E60094F0C373E68D1F8048059
:100D400096435FEA882800D516433E605B1C0A681C
:100D50001646DA407FF42CAFBDE8FC8F003C014022
:100D600044380240003001400000024000040240CC
:100D700000080240000C0240001002400014024033
:100D800000180240001C0240002002400AB18161AC
:100D900070470904FBE700000148806870470000C5
:100DA0001C0000200248816802781144816070476D
:100DB0001C0000200B4810B5016841F4007101606F
:100DC000016841F480610160016841F48071016053
:100DD000032000F06FF8002000F006F800F024F87F
:100DE000002010BD003C024070B50D4D04464FF48C
:100DF0007A712878B1FBF0F00A490968B1FBF0F08C
:100E000000F0C8FB48B9102C07D200222146501E22
:100E100000F030F800206C6070BD012070BD000053
:100E20001C000020280000200A4808B5016841F491
:100E300080410160006800F4804000900548001F78
:100E4000016841F080510160006800F0805000901E
:100E500008BD000044380240002809DB00F01F02F2
:100E6000012191404009800000F1E020C0F800110C
:100E700070470000F0B40E4B1B680C46C3F302230E
:100E8000C3F10705042D00D90425191D072901D236
:100E9000002300E0DB1E012606FA05F1491E214071
:100EA00099409E40761E16403143F0BC01F096B842
:100EB0000CED00E0064900F0070208684FF6FF035A
:100EC000184040EA0220034A1043086070470000BF
:100ED0000CED00E00000FA052DE9F0418AB00400B5
:100EE00005D094F8BD032668002520B108E0012054
:100EF0000AB0BDE8F08184F8BC53204600F05EF8EB
:100F0000032084F8BD03F06BC00500D42561206880
:100F100001F014F804F11001282288466846FFF712
:100F20007EF994E80F0000F0E5FE0226C8BB002120
:100F3000206801F02BF8002001270EE0C0EBC00173
:100F400004EB810181F83D7001F83C0FC880CD7041
:100F50008D60CD60401CC0B24D6161688142EDD8AA
:100F6000002011E0C0EBC00104EB810181F8FD51CC
:100F700081F8FC0181F8FF51C1F80452C1F8085210
:100F8000401CC0B2C1F8105261688142EAD82822E0
:100F900041466846FFF743F994E80F0000F008FF68
:100FA00010B184F8BD63A2E784F8385084F8BD73AB
:100FB000206800F0F1FE00209AE7000030B587B00D
:100FC000044614216846FFF743F92068B0F1A04FAA
:100FD00030D119480024016841F001010160006826
:100FE000164D00F0010005904FF4E85000900220EB
:100FF000CDE90104032003900A20049069462846A5
:10100000FFF7C8FD6815CDE900046946284602943B
:10101000FFF7C0FD0848001D016841F08001016034
:1010200005481430016841F480410160006800F413
:101030008040059007B030BD3038024000000240CB
:101040002DE9F0470E46050063D0DFF81C81D8F883
:101050000000F7B200F00F00B04207D288F800702D
:10106000D8F8000000F00F00B04252D128683F4C81
:10107000810712D5400703D5206840F4E050206076
:101080002878000703D5206840F46040206020687D
:10109000A96820F0F000084320602878C0072BD012
:1010A000324968680839012810D00968022810D030
:1010B000890700292DDA216821F00301014321600D
:1010C000FFF76AFE814641F2883A0EE0096889031B
:1010D000EFE78901EDE700BFFFF75EFEA0EB090136
:1010E000514502D90320BDE8F0872068696800F007
:1010F0000C00B0EB810FEFD1D8F80010404601F0A2
:101100000F01B14207D90770006800F00F00B0422C
:1011100001D00120E7E72878400705D52068E96875
:1011200020F4E050084320602878000706D52068A6
:10113000296920F4604040EAC100206000F054F8C2
:101140002168F02292FAA2F201F0F001B2FA82F2E2
:10115000D140074A515CC84006490860064800680B
:10116000FFF742FE0020BEE7003C02400838024084
:1011700058A4000828000020200000200148006832
:1011800070470000280000200848094900680968E5
:101190004FF4E05292FAA2F201F4E051B2FA82F274
:1011A000D140044A515CC84070470000280000202C
:1011B0000838024068A4000808480949006809681E
:1011C0004FF4604292FAA2F201F46041B2FA82F264
:1011D000D140044A515CC8407047000028000020FC
:1011E0000838024068A40008154810B5006810F0DF
:1011F0000C02144813D04110042A0FD0082A0ED133
:101200000F4C241F2268236802F03F025B0207D5BF
:101210002068C0F38810A0FB010106E0084610BD5D
:101220002168C1F38811A1FB00010023FEF7C6FF6E
:101230002168C1F30141491C4900B0FBF1F010BD28
:10124000083802400024F4002DE9F84F040079D05A
:10125000DFF830B32078ABF10408C007A8F104052B
:1012600036D0DBF800105846C1F38101012908D0BF
:101270000068C0F3810002280AD1D8F800004002BB
:1012800006D52868800323D560680028DFD01FE0DA
:10129000BC492079891F0870606860B1FFF77CFD48
:1012A000064604E0FFF778FD801B642874D82868A0
:1012B0008003F7D50CE0FFF76FFD064605E000BFA1
:1012C000FFF76AFD801B6428F0D828688003F7D4F4
:1012D0002078AD4E80074FF0000943D5DBF80010B1
:1012E000584611F00C0F4FF0F80A08D00068C0F310
:1012F000810002280AD1D8F80000400206D42868EC
:10130000800713D5E06801281CD10FE0E068D0B158
:1013100001203060FFF740FD074604E0FFF73CFD89
:10132000C01B0228C2D828688007F7D528689AFA17
:10133000AAF22169B2FA82F220F0F8009140084343
:1013400028600FE019E1C6F80090FFF725FD074679
:1013500005E000BFFFF720FDC01B0228A6D82868C3
:101360008007F7D42078000727D5DFF818A2874830
:1013700061690AF16C0A81B101210160FFF70CFD7E
:10138000074604E0FFF708FDC01B022804D8DAF87E
:1013900000008007F6D510E082E0C0F80090FFF76B
:1013A000FBFC074605E000BFFFF7F6FCC01B022868
:1013B00076D8DAF800008007F6D4207840075FD5A9
:1013C000DFF8C0A100270AF1380ADAF80000C000EF
:1013D0000BD4DAF8001041F08051CAF80010DAF8A6
:1013E0000000012700F0805000906948016841F436
:1013F000807101600168C90512D4016841F48071EF
:101400000160FFF7C9FC009006E000BFFFF7C4FCD5
:101410000099401A022843D85D480068C005F5D5F8
:101420005849207A68310870A06888B1FFF7B4FC89
:10143000009007E0FFF7B0FC0099411A41F28830B4
:10144000814276D84F48683000688007F2D510E0B6
:10145000FFF7A2FC009007E0FFF79EFC0099411AFD
:1014600041F28830814264D846486830006880077D
:10147000F2D42FB1DAF8001021F08051CAF8001030
:10148000A069E8B3DBF80010C1F38101022957D04D
:101490000228C6F8609004D0FFF77EFC04464BE0BB
:1014A00047E0FFF779FC074605E000BFFFF774FC53
:1014B000C01B64283DD828688001F7D4D4E907010F
:1014C000084347F6C07292FAA2F2616AB2FA82F257
:1014D0009140A26A4FF0FF3303EB52024FF44033C6
:1014E00093FAA3F3B3FA83F39A40114308434FF0FE
:1014F000706292FAA2F2E16AB2FA82F2914000E0DE
:101500003DE00843C8F8000001203066FFF744FCC6
:10151000044604E0FFF740FC001B642809D8286853
:101520008001F7D52BE000BFFFF736FC001B6428D5
:1015300002D90320BDE8F88F28688001F4D41EE0AA
:101540000128F7D0D8F80000E26900F48001914248
:1015500013D1226A00F03F0191420ED1616AC0F3BB
:101560008812914209D1A26A00F44031914204D11B
:10157000E16A00F07060884201D00120DAE70020C3
:10158000D8E700000838024000004742800E47427A
:101590000070004010B5401EB0F1807F01D30120E3
:1015A00010BD4FF0E02460610F21601700F016FDC0
:1015B0000020A06107202061002010BD70470000BE
:1015C00070B5026804461068D168536910F00F0FB7
:1015D00052D003F0010501F490762E435FD0C2078C
:1015E00005D0CA0503D5E26B42F00102E26342076F
:1015F00005D5DA0703D0E26B42F00202E26382070C
:1016000005D5DA0703D0E26B42F00402E263020779
:1016100007D501F020022A4303D0E26B42F0080212
:10162000E263E26B002A33D0800604D5880602D537
:10163000204600F017FA20684069E16BC0F3801083
:10164000090700D428B3204600F0FEF9206841695C
:1016500049061AD5416921F040014161606BA0B192
:101660001B490165606BFEF70FFF002810D0606B0F
:10167000016DBDE870400847830610D58B060ED576
:101680002046BDE8704000F0EDB92046FFF796FF18
:1016900070BD2046FFF792FF0020E06370BD030697
:1016A00006D50B0604D52046BDE8704000F0EABA26
:1016B0004006F3D54806F1D5D168204621F0400117
:1016C000D160202184F8391000F075F870BD000059
:1016D000391A000870B5040004D094F839000025C8
:1016E00010B106E0012070BD84F83850204600F0AB
:1016F00023F8242084F839002068C16821F40051BF
:10170000C160204600F0FAF92068016921F4904197
:1017100001612068416921F02A0141612068C168A6
:1017200041F40051C160E563202084F8390084F859
:101730003A00002070BD000010B586B004461421A8
:101740006846FEF785FD18492068884229D1174868
:101750000021026842F480220260006800F48020C8
:10176000059012481038026842F0080202600068D2
:1017700000F0080005904FF4407000900220CDE981
:101780000101032003900720049069460848FFF7F1
:1017900001FA002211462720FFF76CFB2720FFF7F4
:1017A0005BFB06B010BD000000480040403802401E
:1017B000000C024070477047FEE70000F0B587B0AC
:1017C00014216846FEF744FD32480024016841F0C8
:1017D00004010160016801F004010591016841F014
:1017E00080010160016801F080010591016841F00C
:1017F00001010160016801F001010591016841F0FA
:1018000002010160016801F002010591016841F0E7
:1018100008010160016801F008010591016841F0CB
:101820004001016000681C4E00F0400044F2810558
:101830000590002229463046FFF7A8FA174F0022EC
:1018400040213846FFF7A2FA4FF4005000901448A8
:10185000CDE9010469461348FFF79CF9009501257D
:10186000CDE90154694630460394FFF793F94020CF
:101870000090CDE90154694638460394FFF78AF990
:101880008020CDE90004694638460294FFF782F9CA
:1018900007B0F0BD3038024000040240001802409A
:1018A00000001110000802400EB502F0E9FD2E49BB
:1018B0000868C97803BA0A0603F47F4342EA0322A0
:1018C00003BA00BA0843284903F47F0342EA13220B
:1018D0000C3142EA1060086008390868C97803BA18
:1018E0000A0603F47F4342EA032203BA00BA08431C
:1018F0001D4903F47F0342EA1322103142EA1060CB
:10190000086008390868C97803BA0A0603F47F43F7
:1019100042EA032203BA03F47F0300BA42EA132225
:101920000843114942EA10601431104A0860104916
:1019300000208DE807000C4B0E4814331A1F111FAE
:1019400003F010F90B4803F0AFF90A4890F82B00A8
:101950004007084803D5BDE80E4003F0E1B9BDE8F3
:101960000E4003F0A7B90000040000208D2E0008EF
:10197000253000081405002010B5034801F096FB3F
:10198000BDE8104004F066B914050020FEE770477A
:1019900070477047FFF706BA30B591B030216846FE
:1019A000FEF756FC14210CA8FEF752FC0120039010
:1019B0000224102004900094002506940D20CDE907
:1019C0000750C320CDE9090405200B906846FFF7B6
:1019D0003BFC0CA90F2081E831004FF4A0500F9080
:1019E000E002109003210CA8FFF72AFB11B030BDD4
:1019F0000D48016841F0010101600B4A00210832E5
:101A000011600268094B1A400260031D084A1A60FF
:101A1000026822F48022026003480C30016005490C
:101A2000580608607047000000380240FFFFF6FECD
:101A30001030002408ED00E010B5806B0021C18556
:101A4000C184FFF7BBFD10BD0168CA6822F4907223
:101A5000CA6001684A6922F001024A61202180F8C7
:101A60003A10704710B590F83A10222901D00220A0
:101A700010BD8168B1F5805F11D00169002901684E
:101A80001FD0496801F07F03816A4A1C82620B7093
:101A9000C18D491E0904090CC18518D02BE00269CB
:101AA000816A002A0268526805D0D2B20A80816A2F
:101AB000491C8162ECE7C2F308020A80816A891C32
:101AC000F7E74A68816A4B1C83620A70E0E70168A5
:101AD000CA6822F02002CA600168CA6822F48072D3
:101AE000CA6001684A6922F001024A61202180F837
:101AF0003A10FFF75FFE002010BD00002DE9F04115
:101B0000044600680169E26821F440511143016113
:101B10002169A068E26908436169114322680843AA
:101B2000D16849F20C6399430143D160206841694F
:101B3000A26921F4407111434161E26964253226B2
:101B4000B2F5004F4D494E48226806D0824201D07E
:101B50008A4263D1FFF730FB62E0824201D08A42C1
:101B600025D1FFF729FB00EBC00101EB00106168F4
:101B70006FF0180C4900B0FBF1F3B3FBF5F3B0FBC9
:101B8000F1F7B0FBF1F203FB0CF307EB830306EB79
:101B9000C303B2FBF5F2B3FBF5F3120103F0F80354
:101BA00002EB4302B0FBF1F3B0FBF1F024E0FFF7EE
:101BB000EBFA00EBC00101EB001160686FF0180C4C
:101BC0004000B1FBF0F3B3FBF5F3B1FBF0F7B1FB71
:101BD000F0F203FB0CF307EB830306EBC303B2FB4A
:101BE000F5F2B3FBF5F3120103F0F80302EB430245
:101BF000B1FBF0F3B1FBF0F0B0FBF5F06FF01801C2
:101C0000484303EB800006EBC000B0FBF5F000F0AA
:101C10000700216810448860BDE8F081FFF7B4FA3E
:101C200000EBC00101EB001160686FF01807800045
:101C3000B1FBF0F2B2FBF5F2B1FBF0F37A4303EB48
:101C40008202B1FBF0F306EB0212B2FBF5F2B3FB3A
:101C5000F5F302F0F00202EB0312B1FBF0F3B1FB7B
:101C6000F0F0B0FBF5F0784303EB800006EB0010DA
:101C7000B0FBF5F000F00F00CBE7000000140140CE
:101C80000010014090F83910212901D0022070473E
:101C90008168B1F5805F016A0BD04A1C026202685C
:101CA00009785160C18C491E0904090CC1840ED009
:101CB00017E009880268C1F3080151600169002931
:101CC000016A02D0491C0162ECE7891CFBE701684C
:101CD000CA6822F08002CA600068C16841F0400111
:101CE000C1600020704700000148FFF769BC000098
:101CF000D400002070B504460699049D0D98012972
:101D000015D0E06840F04000E060204600F028F880
:101D1000A16B41F48031A163012D07D1A16841F08D
:101D20000601A160A16841F02001A16070BDA16B16
:101D300021F48031A163E168084A1140E160E16863
:101D400021F44011E160012803D1E06840F48010E3
:101D5000E060204600F004F8DEE70000BFFFBDFFB2
:101D600001220C4902E0521C8A420BD80369002B65
:101D7000F9DA026942F001020261012204E0521C18
:101D80008A4201D9032070470369DB07F7D100209D
:101D900070470000400D030010B5D0F8041841F062
:101DA0000201C0F804180320FEF780FB002010BDDC
:101DB0002DE9F04F0025DDE90BCB0E460446DDF89A
:101DC0004090099F2846294604EB8002C2F804117E
:101DD000401C0F28F8D32046A06BB9F1000F17D094
:101DE00020F40012A263A06B40F40022A263084614
:101DF0008846C4F8000ED4F800182046C4F800182D
:101E0000BCF1010F0FD0D0F8001841F003010FE032
:101E100040F40012A263A06B20F40022A263A06B26
:101E200020F48022E2E7D0F800180BB141F0010164
:101E3000C0F80018102100F097F800B101252046E5
:101E400000F082F800B101254046C4F81088C4F8BB
:101E50001488C4F81C8800214FF000634FF09048AC
:101E60004FF67F3A15E000BF04EB4112D2F800C9EB
:101E7000BCF1000F06DA11B1C2F8008904E0C4F821
:101E8000003901E0C2F80009C2F81009C2F808A937
:101E9000491C8E42E8D8002115E000BF04EB411236
:101EA000D2F800CBBCF1000F06DA11B1C2F8008BFA
:101EB00004E0C4F8003B01E0C2F8000BC2F8100BCC
:101EC000C2F808AB491C8E42E8D8D4F8101821F4A7
:101ED00080722146C4F81028012F08D1134AC1F896
:101EE0003028D1F83018124A1143C4F83018A061D4
:101EF0006FF0804060611FB9A06940F01000A061E0
:101F0000A0690C490843A061BBF1000F03D0A06990
:101F100040F00800A061B9F1010F03D1A0690649A2
:101F20000843A0612846BDE8F08F00000001800052
:101F30000300010000383C8004000040816821F06B
:101F40000101816000207047002110220261054AD2
:101F5000491C914201D9032070470369DB06F7D47D
:101F600000207047400D03000022202343EA811126
:101F700001610549521C8A4201D903207047036957
:101F80009B06F7D400207047400D030010B5C268CF
:101F900022F0C042C260012902D029B1012010BD47
:101FA000C16841F0005102E0C16841F08041C16068
:101FB0003220FEF77BFA002010BDFEE70FB4054B80
:101FC00010B503A9044A029800F028F810BC5DF887
:101FD00014FB0000CF300008D00000200907090ED4
:101FE000002804DB00F1E02080F80014704700F0C6
:101FF0000F0000F1E02080F8141D704702E008C8CF
:10200000121F08C1002AFAD170477047002001E072
:1020100001C1121F002AFBD1704700002DE9FF4FBC
:102020008BB09A460F460546002606E025280BD0C1
:1020300052460D9990476D1C761C28780028F5D1E2
:102040000FB03046BDE8F08F0024A0460122604961
:1020500000E0044315F8013F203B02FA03F0084278
:10206000F7D128782E2817D115F8010F44F0040471
:102070002A280ED06FF02F022878A0F1300109290C
:102080000AD808EB880102EB410100EB01086D1C46
:10209000F2E757F8048B6D1C287869283ED006DCDF
:1020A0000028CDD063280BD0642804D136E07328F3
:1020B00010D075284BD052460D999047761C85E07C
:1020C00017F8040B8DF8000000208DF80100E94698
:1020D000012003E057F8049B4FF0FF3061074FF0F9
:1020E000000401D40AE0641C44450DDA8442FADBA2
:1020F00019F804100029F6D106E0641C8442FCDBC8
:1021000019F804100029F8D1264404E019F8010B4D
:1021100052460D999047641EF8D257E001CF4FF018
:102120000A0B002802DA40422D2102E0210504D5E5
:102130002B218DF82410012103E0E10705D0202197
:10214000F7E70DF1200908910CE00021F9E701CF34
:102150004FF00A0BF9E75946FEF792F801F1300209
:1021600009F8012D0028F6D1ADEB090000F1200B94
:10217000600701D44FF00108D84502DDA8EB0B0041
:1021800000E000208046002406E009A85246005DD9
:102190000D999047641C761C08988442F5DB04E096
:1021A000302052460D999047761CB8F10001A8F1F5
:1021B0000108F5DC05E019F8010B52460D9990472E
:1021C000761CBBF10001ABF1010BF4DC6D1C34E7B4
:1021D0000928010010B5044640688047224620685F
:1021E000BDE81040014903F063BD0000D52100089F
:1021F00070B505460C46880706D006A34FF4CE728C
:1022000010A118A0FFF7DAFEA86800682060A8688F
:10221000046070BD2E2E2F4D6964646C6577617209
:1022200065732F54686972645F50617274792F4CC2
:102230007749502F7372632F636F72652F6D656DD1
:10224000702E63006D656D705F667265653A206D16
:10225000656D2070726F7065726C7920616C696752
:102260006E656400417373657274696F6E20222518
:102270007322206661696C6564206174206C696EEC
:102280006520256420696E2025730A0010B58068DA
:102290000468002C0CD021680160A00706D005A3BB
:1022A0004FF4A4720FA118A0FFF788FE204610BDBE
:1022B000002010BD2E2E2F4D6964646C657761720D
:1022C00065732F54686972645F50617274792F4C22
:1022D0007749502F7372632F636F72652F6D656D31
:1022E000702E63006D656D705F6D616C6C6F633A2D
:1022F000206D656D702070726F7065726C792061F1
:102300006C69676E65640000417373657274696F10
:102310006E2022257322206661696C6564206174D9
:10232000206C696E6520256420696E2025730A0083
:1023300070B50A4D0646002404EB440005EBC000CE
:10234000017D29B18068B04202D1204600F034F905
:10235000641CE4B20A2CEFD370BD0000D0670020EB
:102360002DE9F74F84B04FF00A0B00240646DA46F9
:102370005F46D94602940194CDF800404F4904EBE2
:10238000440001EBC008039098F814500A2F16D0AF
:10239000002D24D0012D08D0022D06D248A340F2F2
:1023A000251255A164A0FFF709FE66B13168D8F87F
:1023B0000400814207D160B207B0BDE8F08F002D64
:1023C000E8D167B20BE0012D17D0022D07D3B8F882
:1023D00012000099884202D34FFA84FA0090641CDC
:1023E000E4B20A2CCAD3059881074FF0FF30E3D43A
:1023F0000A2F18D01ADAFCB242E03048039950F89C
:1024000031000028B8F8120006D002998842E6D3BD
:102410004FFA84F90290E2E701998842DFD34FFA3C
:1024200084FB0190DBE70599C907C5D0BAF10A0F13
:102430000FDA0AF0FF04214804EB440150F83100A0
:1024400090B11FA340F26F1245A13BA0FFF7B6FD6C
:102450000AE0BBF10A0F02DA0BF0FF0404E0B9F165
:102460000A0FA9DA09F0FF040A2C06D314A340F2DC
:10247000811241A130A0FFF7A1FD204600F09CF899
:102480000A2C06D30EA340F285123BA12AA0FFF727
:1024900095FD0A4804EB440100EBC105287D30B1ED
:1024A00007A34FF4C37239A123A0FFF787FD0EB134
:1024B00030686860002068827DE70000D0670020F7
:1024C0002E2E2F4D6964646C6577617265732F548D
:1024D000686972645F50617274792F4C7749502F2C
:1024E0007372632F636F72652F697076342F657412
:1024F000686172702E6300007374617465203D3DE5
:10250000204554484152505F53544154455F504513
:102510004E44494E47207C7C207374617465203E94
:102520003D204554484152505F53544154455F53F8
:102530005441424C45000000417373657274696FE9
:102540006E2022257322206661696C6564206174A7
:10255000206C696E6520256420696E2025730A0051
:102560006172705F7461626C655B695D2E71203DA4
:102570003D204E554C4C000069203C204152505F9C
:102580005441424C455F53495A4500006172705FA7
:102590007461626C655B695D2E7374617465203D66
:1025A0003D204554484152505F53544154455F4586
:1025B0004D5054590000000070B5074C00EB400529
:1025C000002654F8350018B103F014F844F83560CB
:1025D00004EBC500067570BDD06700202DE9F043FF
:1025E00085B00D00074609D07C684FF480782088BC
:1025F000404539D12079062836D109E01CA34FF493
:10260000227229A12CA0FFF7D9FC05B0BDE8F08308
:102610006079042828D16088082825D1D4F80E00D4
:102620000490A169686820B1814202D10126334635
:1026300001E00026022304F10802914604A928467D
:1026400000F096FBE08840450ED16EB1022204AB4B
:10265000CDE90232291DCDE9001905F125031946FE
:102660004A46284600F086FA384602F0C3FFCCE717
:102670002E2E2F4D6964646C6577617265732F54DB
:10268000686972645F50617274792F4C7749502F7A
:102690007372632F636F72652F697076342F657460
:1026A000686172702E6300006E6574696620213D5A
:1026B000204E554C4C000000417373657274696F75
:1026C0006E2022257322206661696C656420617426
:1026D000206C696E6520256420696E2025730A00D0
:1026E000FEB515460E46040006D142A340F21B3249
:1026F0004EA152A0FFF762FC36B93EA34FF44772D9
:1027000058A14EA0FFF75AFC35B93AA340F21D324A
:1027100057A14AA0FFF752FC2146286800F060FE4E
:1027200008B1574B39E02868C0F303110E291FD0B8
:10273000A168636800EA01020B409A4208D080B2A7
:10274000A0F57E41A93903D0E06880B304F10C05FF
:102750004C4A4D49137803EB430001EBC000077D61
:10276000022F28D32F684068874224D11A4631E0CF
:1027700001208DF8040000208DF805005E208DF802
:102780000600687801AB00F07F008DF80700A8789C
:102790008DF80800E8788DF809004FF4006000908B
:1027A00004F125023146204600F0C0FBFEBDFFE7E4
:1027B0006FF00300FAE7002000EB400301EBC303D6
:1027C0001F7D022F0BD32F685B689F4207D1C0B2D9
:1027D000107002463146204600F058F8E6E7401CEB
:1027E00040B20A28E8DB32462946204600F0D6F8F7
:1027F000DCE700002E2E2F4D6964646C65776172F2
:1028000065732F54686972645F50617274792F4CDC
:102810007749502F7372632F636F72652F697076DB
:10282000342F6574686172702E6300006E65746980
:102830006620213D204E554C4C00000041737365CD
:102840007274696F6E2022257322206661696C653F
:1028500064206174206C696E6520256420696E2097
:1028600025730A007120213D204E554C4C0000007C
:1028700069706164647220213D204E554C4C00000B
:1028800070A40008C4000020D06700202DE9F843A0
:102890000646154688461C4802EB450100EBC1047C
:1028A000207D022806D219A34FF43B7225A131A046
:1028B000FFF784FB144A05EB4501207D02EBC105BF
:1028C0000C35022813D1608A0327B0F58E7F04D916
:1028D000211D304600F006FA07E0B0F5877F06D3E9
:1028E0002A46211D304600F003FA00B927754FF43F
:1028F000006000902B4606F125024146304600F06C
:1029000015FBBDE8F8830000D06700202E2E2F4D68
:102910006964646C6577617265732F546869726469
:102920005F50617274792F4C7749502F7372632F07
:10293000636F72652F697076342F65746861727089
:102940002E6300006172705F7461626C655B61721E
:10295000705F6964785D2E7374617465203E3D20FC
:102960004554484152505F53544154455F5354417C
:10297000424C4500417373657274696F6E20222565
:102980007322206661696C6564206174206C696ED5
:102990006520256420696E2025730A002DE9FC5FFF
:1029A0008246253001908846086814464FF0FF366D
:1029B0004FF0000B514600F013FD002828D1D8F845
:1029C0000000C0F303110E2922D0B8F1000F1FD070
:1029D00000281DD0524601214046FFF7C1FC0700E8
:1029E00018D4394907EB470901EBC905287D0028B0
:1029F00012D0012808D0022806D234A340F2C732F0
:102A000040A14AA0FFF7DAFABBF1000F0AD108E0B3
:102A10006FF00F00BDE8FC9F01202875C5F808A0E5
:102A200000E034B94146504600F05CF90646002CFF
:102A3000F0D0287DDFF8908002280DD3454805F1BD
:102A40000C03214607704FF4006000905046019A35
:102A500000F06CFA064635E0012833D125464FF4E4
:102A60007B7668892989884207D1286828B117A30D
:102A7000324639A12DA0FFF7A1FA287B01280ED0FC
:102A800029890022022002F059F9050018D02146B8
:102A900002F02CFC58B1284602F0ACFD10E02D6885
:102AA000002DDED12546204602F0D0FF45B158F872
:102AB000390008B102F09EFD48F83950002601E0C7
:102AC0004FF0FF363046A5E7D06700202E2E2F4D61
:102AD0006964646C6577617265732F5468697264A8
:102AE0005F50617274792F4C7749502F7372632F46
:102AF000636F72652F697076342F657468617270C8
:102B00002E6300006172705F7461626C655B695D69
:102B10002E7374617465203D3D2050454E44494EEE
:102B200047206F7220535441424C450041737365F6
:102B30007274696F6E2022257322206661696C654C
:102B400064206174206C696E6520256420696E20A4
:102B500025730A00C40000206E6F207061636B65EE
:102B6000742071756575657320616C6C6F77656431
:102B7000210000002DE9FF4F81B09846DDE90FA943
:102B8000DDF838B006004FF0000706D12BA34FF454
:102B90008B6238A13BA0FFF711FA00221C21022012
:102BA00002F0CCF8050046D068891C2806D223A381
:102BB00040F263423DA133A0FFF700FA6C68119820
:102BC00001F05CFCE08096F82400062806D01BA3E8
:102BD00040F26A4242492BA0FFF7F0F9D8F8001002
:102BE000A160B8F80400A081DAF80010C4F812104F
:102BF000BAF80400E082DBF80000C4F80E00D9F84F
:102C00000000A0614FF480702080082060800620C2
:102C100020710420607140F60600DDE90223009077
:102C20002946304600F082F9284602F0E3FC384697
:102C300005B0BDE8F08F4FF0FF30F9E72E2E2F4D95
:102C40006964646C6577617265732F546869726436
:102C50005F50617274792F4C7749502F7372632FD4
:102C6000636F72652F697076342F65746861727056
:102C70002E6300006E6574696620213D204E554C20
:102C80004C000000417373657274696F6E202225D9
:102C90007322206661696C6564206174206C696EC2
:102CA0006520256420696E2025730A0063686563CA
:102CB0006B20746861742066697273742070627529
:102CC000662063616E20686F6C6420737472756334
:102CD00074206574686172705F686472000000003F
:102CE0004CA60008014A00F003B8000070A40008D8
:102CF0007FB5064D031D0124CDE90035CDE9021451
:102D000021331946FFF736FF04B070BD76A40008E2
:102D100070B5164D002400BF04EB440005EBC00263
:102D2000107DF0B1518A491C89B25182B1F5967F6C
:102D30000AD2012806D003280AD004280AD0012884
:102D40000BD00EE0052908D32046FFF735FC08E03C
:102D5000042000E00220107503E0111D9068FFF7C9
:102D6000C1FF641CE4B20A2CD6D370BDD06700202A
:102D7000F8B5044690F824001F4616460D4606286E
:102D800006D020A340F2AB122CA135A0FFF716F914
:102D90009DB3286888B3214600F022FB68BB2878E1
:102DA000C0F303100E2829D0224639462846FFF7E3
:102DB000D7FA002820DB00EB40013348022300EB68
:102DC000C102137594603368D360B3881382002303
:102DD000538250F8315075B140F831304FF40060F3
:102DE0000090334604F125022946204600F09EF863
:102DF000284602F0FFFB0020F8BDFFE76FF00F0050
:102E0000FAE700002E2E2F4D6964646C65776172BD
:102E100065732F54686972645F50617274792F4CC6
:102E20007749502F7372632F636F72652F697076C5
:102E3000342F6574686172702E6300006E6574696A
:102E4000662D3E6877616464725F6C656E203D3DFF
:102E5000204554485F4857414444525F4C454E001A
:102E6000417373657274696F6E2022257322206628
:102E700061696C6564206174206C696E65202564ED
:102E800020696E2025730A00D067002070B50446C3
:102E900040890D460E283CD9606801788689CA07AA
:102EA00014D0012905D006221F49FDF7DCF948B1ED
:102EB0000CE0417851B980785E2807D1607B40F002
:102EC000100002E0607B40F0080060736FF00D01BD
:102ED000082E03D0B6F5C16F1BD10FE095F82B007B
:102EE000000716D560890E2813DB204602F04AFC45
:102EF00078B92946204600F0B5FB12E095F82B0082
:102F0000000706D560890E2803DB204602F03AFC54
:102F100018B1204602F06EFB03E029462046FFF779
:102F20005DFB002070BD000070A400082DE9F04199
:102F300004461F4690460E46069801F09FFA054645
:102F40000E21304602F01EFC18B16FF00100BDE802
:102F5000F0817068858139680160B9888180D8F80E
:102F60000020C0F80620B8F80410418194F824002D
:102F7000062806D006A340F22B1213A11FA0FFF7CC
:102F80001DF831462046A269BDE8F0411047000017
:102F90002E2E2F4D6964646C6577617265732F54B2
:102FA000686972645F50617274792F4C7749502F51
:102FB0007372632F6E657469662F65746865726ECF
:102FC00065742E63000000006E657469662D3E68AE
:102FD00077616464725F6C656E206D7573742062D6
:102FE00065203620666F722065746865726E657440
:102FF0005F6F757470757421000000004173736514
:103000007274696F6E2022257322206661696C6577
:1030100064206174206C696E6520256420696E20CF
:1030200025730A0010B5040006D10BA340F211224B
:103030000EA112A0FEF7C2FF732084F82C007420AA
:1030400084F82D00174860611748A061204601F000
:10305000E9F8002010BD00002E2E2F5372632F655B
:10306000746865726E657469662E63006E65746956
:103070006620213D204E554C4C0000004173736585
:103080007274696F6E2022257322206661696C65F7
:1030900064206174206C696E6520256420696E204F
:1030A00025730A00E1260008D143000870B50546E3
:1030B00001F030F9040009D02A6929469047002818
:1030C00004D02046BDE8704002F094BA70BD38B517
:1030D00004468DF8000069460320ABBE204638BD8B
:1030E0000A46032100F0F2B82DE9FE4F8A46434913
:1030F0000546D1F8088098F800000007840E142CCB
:1031000076D36889042873D36868007800286FD064
:1031100008286DD1486901F11407C0F303120E2A83
:1031200066D08946096800F05BF9002860D12889DB
:1031300008285DD304F10E010E46284602F022FB5A
:1031400000282DD028890022204481B2022001F0DD
:10315000F5FD06004CD0718904F10800814216D3B8
:10316000224641467068FDF75AF86142304602F047
:1031700009FB002806D022A3AF222FA13CA0FEF716
:103180001DFF04E02946304602F0B0F818B1304681
:1031900002F030FA2CE0284602F02CFA35460CE01A
:1031A0007142284602F0EEFA002806D014A3C0228D
:1031B00039A12FA0FEF702FF1AE0214628466E68CB
:1031C00002F0E0FAA0B968683968FF22C160D9F856
:1031D0001010016100213170718002724181012261
:1031E0008DE806040A46FF233946284600F00CFB0A
:1031F0002846BDE8FE4F02F0FDB900002C36002045
:103200002E2E2F4D6964646C6577617265732F543F
:10321000686972645F50617274792F4C7749502FDE
:103220007372632F636F72652F697076342F6963D1
:103230006D702E630000000069636D705F696E70D1
:1032400075743A206D6F76696E6720722D3E7061DD
:10325000796C6F616420746F2069636D702068659C
:1032600061646572206661696C65640A0000000033
:10327000417373657274696F6E2022257322206614
:1032800061696C6564206174206C696E65202564D9
:1032900020696E2025730A0069636D705F696E7026
:1032A00075743A20726573746F72696E67206F72FD
:1032B0006967696E616C20702D3E7061796C6F6119
:1032C00064206661696C65640A0000002DE9FF47AF
:1032D00091468846064600222421012001F02EFD59
:1032E000050031D06889242806D218A340F2611263
:1032F00024A12FA0FEF762FE6C6877681C2284F878
:10330000008084F801904FF00008A4F80480A4F82D
:103310000680686871680830FCF781FFF8680390E0
:1033200003A800F011FC60B1A4F802800122CDF8DE
:103330000080CDE90120FF2303AA0021284600F0E8
:1033400063FA284602F056F9BDE8FF872E2E2F4D6E
:103350006964646C6577617265732F54686972641F
:103360005F50617274792F4C7749502F7372632FBD
:10337000636F72652F697076342F69636D702E6389
:1033800000000000636865636B20746861742066E8
:103390006972737420706275662063616E20686F55
:1033A0006C642069636D70206D657373616765007F
:1033B000417373657274696F6E20222573222066D3
:1033C00061696C6564206174206C696E6520256498
:1033D00020696E2025730A000A460B21FFF776BF8D
:1033E000421C12D088B191F82B2092070BD54B6864
:1033F000834208D0896800EA01020B409A4202D158
:103400000143491C01D00020704701207047000093
:103410002DE9F74F86B00446079800251427408C05
:10342000AE1F1438C11700EB5170C0F3CF0B6068AA
:103430000590017801F00F01052904D056A340F250
:10344000E12264A10BE0C08801F018F8C0F30C0180
:10345000029180040AD550A340F2E62267A16EA033
:10346000FEF7ACFD304609B0BDE8F08F2089143876
:103470001FFA80F880E000BFB8EBCB0F01D34FEA12
:10348000CB0080B2039000221421022001F056FCF0
:103490005FEA000A78D06089142806D23EA34FF470
:1034A000427267A15CA0FEF789FD1422DAF80400DD
:1034B0000599FCF7B4FEDAF804000490039E2BE0B3
:1034C0006089C01B85B2AE4200D2354615B30520D7
:1034D00001F0F6FA5FEA000953D060684B463844C1
:1034E000CDE9000502222946042001F0E5FD009007
:1034F000F0B3204602F0AAFA5949C9E9041450462B
:10350000009901F049FE701B0604360C06D0002716
:103510002468D5E724680027002ED1D1781987B216
:103520000798418C029814394145C0F30C0001DA28
:1035300040F4005000F0A2FF0499C88003981430B2
:1035400080B200F09BFF04994880049800214181DB
:1035500007985146089A43699847504602F04AF83E
:103560000398A8EB00001FFA80F80298584401E085
:103570000DE009E080B20290B8F100007FF47CAF6A
:1035800071E7504602F036F84FF0FF306BE74846DF
:1035900000F008FBF5E700002E2E2F4D6964646CE7
:1035A0006577617265732F54686972645F506172E8
:1035B00074792F4C7749502F7372632F636F726544
:1035C0002F697076342F6970345F667261672E637D
:1035D000000000006970345F66726167282920640A
:1035E0006F6573206E6F7420737570706F727420C6
:1035F0004950206F7074696F6E73000069705F6668
:1036000072616728293A204D4620616C72656164B9
:103610007920736574000000417373657274696F7B
:103620006E2022257322206661696C6564206174B6
:10363000206C696E6520256420696E2025730A0060
:1036400074686973206E65656473206120706275AB
:103650006620696E206F6E65207069656365210064
:103660008D4100082DE9F05F456806460F46287831
:103670000421B1EB101F03D0304601F0BBFF8DE0F9
:1036800000F00F004FF6FF7101EA8008688800F033
:10369000F5FE04463089A04203D92146304602F0A7
:1036A00009F971894145E7D33089A042E4D3B8F1E3
:1036B000140FE1D32969DFF848A1C1F303100E28E4
:1036C000CAF81410EA68CAF8102014D0DFF834B130
:1036D0004FF001093C4600BF94F82B00C00712D000
:1036E000616881B1DAF81400884220D02146FFF7E2
:1036F00077FEE0B907E097F82B00C0070FD0786895
:1037000068B13C4613E0B9F1000F0AD09AF81400F2
:103710007F2804D04FF00009DBF8004002E00024CD
:1037200005E02468BC4200D12468002CD4D139467D
:10373000DAF81000FFF754FE00289DD19AF8100027
:10374000D146C0F303100E2896D0002C94D0E88800
:1037500030F0C00005D0304600F01CF906001DD046
:103760007568C9F80850C9E9004729783046090743
:10377000890EA9F80C10C8F1000102F003F8687A6C
:10378000012818D0062811D011280AD04F4621460A
:10379000D9F81400FFF724FE90B11FE00020BDE827
:1037A000F09F3946304606F06FFD1AE03946304644
:1037B00003F092F815E039463046FFF795FC10E02B
:1037C000387DC0F303100E2808D04146304601F082
:1037D000DCFF022130467560FFF782FC304601F0C5
:1037E00009FF0021C9F80010C9F80410C9F8081031
:1037F000A9F80C10C9F81010C9F81410CEE7000091
:103800002C36002060000020FEB5DDE90954089E3A
:103810001AB109B10F6807B9211D0096CDE901540D
:1038200000F002F8FEBD00002DE9F84F0546DDE985
:103830000BA8C089DDF828B01F4616468946012826
:1038400006D02CA340F2333237A13AA0FEF7B6FBE4
:10385000002E38D01421284601F094FF18B16FF0E3
:103860000100BDE8F88F68896C68142806D221A38E
:103870004FF4587239A12FA0FEF7A0FB277284F8ED
:1038800009A0306820614520207084F801B02889A3
:1038900000F0F4FD3D4F60804FF0000AA4F806A050
:1038A000388800F0EBFDA0803888401C3880B9F1E2
:1038B000000F05D0D9F80000E060A4F80AA006E0E7
:1038C00033480068F8E768686E4600690090B8F809
:1038D000220040B12989814205D932464146284615
:1038E000FFF796FDBDE7D8F814304046324629462A
:1038F0009847B6E72E2E2F4D6964646C6577617228
:1039000065732F54686972645F50617274792F4CCB
:103910007749502F7372632F636F72652F697076CA
:10392000342F6970342E6300702D3E726566203D21
:103930003D203100417373657274696F6E202225DA
:103940007322206661696C6564206174206C696E05
:103950006520256420696E2025730A00636865630D
:103960006B2074686174206669727374207062756C
:10397000662063616E20686F6C6420737472756377
:10398000742069705F68647200000000C600002047
:1039900078A500082DE9F05F45688346287800F097
:1039A0000F0005287DD1E88800F068FDC004070CF1
:1039B000688800F063FD297801F00F01494200EBAF
:1039C00081001FFA80F8584601F087FC5D4C0646DE
:1039D000208830440A2809D93146284600F080FB67
:1039E00000285ED0208830440A285AD8A14664684E
:1039F0004FF0000A0CE06069E968884207D1A069CD
:103A00002969884203D1A089A988884203D0246803
:103A1000002CF0D106E02CB1E88800F02FFDC004A6
:103A20001BD025E0042001F04BF804000AD13146F8
:103A3000284600F055FBB0427FDB042001F040F83F
:103A400004007AD02021FCF703FC0320E077D9F8AA
:103A500004102160C9F8044004E0E08900F00EFD84
:103A6000C00405D01422294604F10800FCF7D7FB56
:103A7000A87940F340156D1C08D007EB080080B210
:103A8000B8425AD34FF6EB71884256D82A46594667
:103A9000204600F0CFF8411C4FD0B9F80020324446
:103AA00000E04AE0A9F8002035B107EB0801A18346
:103AB000A17F41F00101A17701283CD1A08B142204
:103AC0001430A083606804F10801456828462E6818
:103AD000FCF7A5FBA08B00F0D1FC6880A5F806A040
:103AE000A5F80AA06FF01308656809E04146304662
:103AF000776801F047FE3146284601F04DFB3E68ED
:103B0000002EF3D1D9F804104E468C4205D1002185
:103B100005E00868A04202D001460029F9D12046FC
:103B200000F0B8F9284601F0D8FB3188081A308037
:103B30002846BDE8F09F0020FBE7584601F05AFDFB
:103B4000F9E70000C800002070B50446134813E0F0
:103B500090F82B10CA070FD04A070DD543685BB108
:103B600082682568134005EA02069E4214D0890740
:103B700002D4C1688D420FD000680028E8D10848FF
:103B8000006840B190F82B10CA0704D0490702D54D
:103B90004168002900D1002070BD000060000020B5
:103BA0006400002010B5040006D106A340F2AE2246
:103BB00013A116A0FEF702FA2146BDE81040052029
:103BC00000F00ABF2E2E2F4D6964646C6577617218
:103BD00065732F54686972645F50617274792F4CF9
:103BE0007749502F7372632F636F72652F697076F8
:103BF000342F6970345F667261672E6300000000C5
:103C00007020213D204E554C4C00000041737365DF
:103C10007274696F6E2022257322206661696C655B
:103C200064206174206C696E6520256420696E20B3
:103C300025730A002DE9F0474C68064692460F4668
:103C400000254FF00108608800F018FC217801F091
:103C50000F01494200EB8109E08800F00FFCC0042D
:103C60007C68010C0020206001EB0900A18083B278
:103C7000E380726826E05068B0F804C0614515D250
:103C800022606DB1B5F806C061457BD38088834260
:103C900078D82F60A088844506D04FF0000803E054
:103CA000808883426ED8776072B12DE06AD0C28876
:103CB000914267D325B1EA88624501D04FF00008F0
:103CC00002680546002AD6D1002D12D0E888A188C6
:103CD000884206D932A340F2AB1240A147A0FEF7BA
:103CE0006DF92F60E888A18888420DD04FF0000858
:103CF0000AE07068002806D029A340F2B31249A157
:103D00003EA0FEF75BF97760BAF1000F02D1B07FF9
:103D1000C00732D0B8F1000F32D07268002A2FD01D
:103D20005068808800282BD12168204629B14C6832
:103D3000C088A1888842F7D022E0B8F1000F1FD0D8
:103D400032B917A34FF4EA7244A12CA0FEF736F95A
:103D500070684068A04206D111A340F2D5123FA17D
:103D600026A0FEF72BF9206830B10DA340F2D71240
:103D70003EA122A0FEF722F90120BDE8F08701E074
:103D80000020FAE7384601F0A8FA014640480288C8
:103D9000511A0180384601F02DFC4FF0FF30ECE75E
:103DA0002E2E2F4D6964646C6577617265732F5494
:103DB000686972645F50617274792F4C7749502F33
:103DC0007372632F636F72652F697076342F697019
:103DD000345F667261672E6300000000636865638C
:103DE0006B20667261676D656E747320646F6E27F9
:103DF00074206F7665726C617000000041737365AA
:103E00007274696F6E2022257322206661696C6569
:103E100064206174206C696E6520256420696E20C1
:103E200025730A006E6F2070726576696F75732056
:103E3000667261676D656E742C2074686973206D9D
:103E40007573742062652074686520666972737486
:103E500020667261676D656E7421000073616E6922
:103E6000747920636865636B0000000076616C699B
:103E7000646174655F646174616772616D3A6E65F7
:103E800078745F70627566213D4E554C4C000000A1
:103E9000C800002070B504460C480D464168A14298
:103EA00002D1216841600AE0002D06D108A340F24A
:103EB000451216A11CA0FEF781F820682860214653
:103EC000BDE87040042000F087BD0000C80000205D
:103ED0002E2E2F4D6964646C6577617265732F5463
:103EE000686972645F50617274792F4C7749502F02
:103EF0007372632F636F72652F697076342F6970E8
:103F0000345F667261672E630000000073616E6942
:103F1000747920636865636B206C696E6B656420DF
:103F20006C69737400000000417373657274696F8B
:103F30006E2022257322206661696C65642061749D
:103F4000206C696E6520256420696E2025730A0047
:103F50002DE9F047054600240F46A94205D12FA3BD
:103F6000AB223DA13FA0FEF729F8002F08D038680A
:103F7000A84205D029A3AD2244A13AA0FEF71EF81D
:103F80006E684FF480387068818800291AD1006803
:103F90006860142205F108017068FCF740F90121FE
:103FA0003046FFF719FA304601F097F904464045CC
:103FB00005D31AA3BC223AA12AA0FDF7FFFF304681
:103FC00001F018FB6E6812E07068B146066848465A
:103FD00001F083F90444444505D310A3CC2230A159
:103FE00020A0FDF7EBFFA4B2484601F003FB002E32
:103FF000EAD139462846FFF74DFF314D2888A042C7
:1040000005D206A3D2222FA116A0FDF7D7FF28883C
:10401000001B28802046BDE8F08700002E2E2F4D83
:104020006964646C6577617265732F546869726442
:104030005F50617274792F4C7749502F7372632FE0
:10404000636F72652F697076342F6970345F6672A2
:1040500061672E63000000007072657620213D20AC
:1040600069707200417373657274696F6E202225E6
:104070007322206661696C6564206174206C696ECE
:104080006520256420696E2025730A0070726576AC
:104090002D3E6E657874203D3D20697072000000F1
:1040A00070627566735F6672656564202B20636C51
:1040B000656E203C3D203078666666660000000034
:1040C000C800002069705F72656173735F7062750C
:1040D00066636F756E74203E3D20636C656E0000F4
:1040E0002DE9F0471D4F894606460024002213465D
:1040F00011461546786822E0D0F814C0D6F80C8036
:10410000C4450BD1D0F818C0D6F81080C44505D1ED
:10411000B0F80CC0B6F80480C44509D06D1C2AB1B3
:1041200090F81FC092F81F80C44501D80246194676
:10413000D0F800C0BCF1000F00D003466046002854
:10414000DAD11AB11046FFF703FF04444C4501DAF7
:10415000012DCBDC2046BDE8F0870000C800002020
:1041600070B50948002544680BE0E07F20B1401E8F
:10417000E0772546246804E0204624682946FFF7B6
:10418000E7FE002CF1D170BDC800002010B504007E
:1041900006D108A34FF42E7215A118A0FDF70EFF4B
:1041A000606908B101F026FA2046BDE81040FFF72B
:1041B000F9BC00002E2E2F4D6964646C6577617226
:1041C00065732F54686972645F50617274792F4C03
:1041D0007749502F7372632F636F72652F69707602
:1041E000342F6970345F667261672E6300000000CF
:1041F00070637220213D204E554C4C004173736515
:104200007274696F6E2022257322206661696C6565
:1042100064206174206C696E6520256420696E20BD
:1042200025730A003EB50446374D002035490090FD
:1042300029600121696028828DF8040080228DF8B0
:104240000520E1228DF808008DF806208DF8091070
:104250008DF8070001A9C5E90510E8614FF40000D9
:1042600028622846FCF7E8F928B994F82B0040F0BA
:10427000040084F82B000423244A25492248FCF733
:1042800061F9234A04238032A2F580711E48FCF7AD
:104290001FF9062084F824006869007884F8250056
:1042A0006869407884F826006869807884F8270077
:1042B0006869C07884F828006869007984F8290062
:1042C0006869407984F82A0040F2DC5024F8220F13
:1042D000607A40F00A0060720B48FCF759FB6A46AE
:1042E0001D210948FCF712FB00981D2140F00B022C
:1042F00005480092FCF712FC6A461D210248FCF7B3
:1043000005FB3EBD00800240E4350020141E002065
:10431000C40500202DE9F84F0020044600902B48EA
:10432000FCF74CF910B10020BDE8F88F2748818FC9
:10433000D0F840900904090C2DD00322042000F08D
:10434000FDFC009038B32148009D40F2F45BD0F8AA
:1043500030806E8900270FE0A4F2F4525242FBF73E
:104360005EFFD8F80C008046D0F808903F1BAAF2F8
:10437000F456002407F2F457686806EB040ADA459D
:1043800009EB04013844E7D83246FBF748FF2D68B3
:104390003444002DDDD10D480022016B05E00B688F
:1043A00043F000430B60C968521C836B9342F6D8FC
:1043B00000218163006800F580504269120602D531
:1043C0008022426181600098AEE70000E435002061
:1043D0002DE9F05F27480D46C66A00208346044653
:1043E000D6F808A031E0306800280CDB6F894FF068
:1043F000000818E0A4F2F4525242FBF710FFF668EE
:104400003068002802DA6FF0070025E0D6F808A02F
:10441000A8EB040000F2F458ABEB0400A9F2F45747
:1044200000F2F45B002407EB040940F2F4518945E3
:1044300069680AEB04004144DCD83A46FBF7EFFE1A
:104440000BEB07002D683C448346002DCBD1014681
:104450000848FCF7DFFA00200649096801F5805199
:104460004A69920603D520224A6100224A60BDE8CB
:10447000F09F0000E435002000BA704740BA704752
:1044800010B500F0CFF800F0F5FA00F0DBFB05F016
:10449000F9FE02F01FFABDE8104001F0A9BC0000CF
:1044A000FCF788FCFDF778FAFDF788F91548144900
:1044B000002401604FF4E131C0E901140C21C46013
:1044C000C0E904418461C461FDF704F90D484FF06F
:1044D000A04140300160042141600221C0E9031481
:1044E00081610121C0E90714C0E90B14FCF7F4FC59
:1044F000FDF7DAF904F030FEFDF73EFAFCE70000C4
:1045000000480040D400002070B5040032D0A0075D
:1045100006D019A34FF4D67223A12CA0FDF74EFDAF
:10452000344D2868844202D36868844206D312A3BB
:104530004FF4D77230A125A0FDF740FD28688442D2
:1045400018D36868844215D214F8040C083C30B9BA
:1045500009A34FF4E0722EA11CA0FDF72FFD00204F
:104560002071A868844200D2AC602046BDE870404B
:1045700001F0B2BA70BD00002E2E2F4D6964646C3C
:104580006577617265732F54686972645F506172F8
:1045900074792F4C7749502F7372632F636F726554
:1045A0002F6D656D2E6300006D656D5F66726565CC
:1045B0003A2073616E69747920636865636B20616A
:1045C0006C69676E6D656E74000000004173736501
:1045D0007274696F6E2022257322206661696C6592
:1045E00064206174206C696E6520256420696E20EA
:1045F00025730A002C0000206D656D5F667265658D
:104600003A206C6567616C206D656D6F7279000092
:104610006D656D5F667265653A206D656D2D3E75E1
:104620007365640010B50A480A4A20F003004FF48D
:10463000C8631060002103804180017100F5C861EA
:10464000012451600C710B804B80906010BD000004
:10465000473600202C0000202DE9F047002874D0B8
:104660004FF6FC71C01C00EA01044FF4C8690C2C21
:1046700001D20C2401E04C456CD8374EC4F5C86318
:104680003268B068811A89B262E055182F79002F1C
:104690005DD12F887F1A083FA74258D32B8804F199
:1046A00014075B1A083B4FF0010CBB4215D30B19E2
:1046B00008339FB2D3194FF0000883F80480B5F88F
:1046C0000080A3F8008059802F8085F804C01988E5
:1046D000494504D0931CCF5201E085F804C08542BF
:1046E00013D1716801E00088104403790BB188424E
:1046F000F9D1B060884208D0007930B117A340F2F8
:10470000CF2222A128A0FDF759FC28197168083092
:10471000884206D911A340F2D3222DA122A0FDF791
:104720004DFCA8070FD00DA340F2D52234A11EA046
:10473000FDF744FC09A340F2D72200E005E03CA1CC
:1047400019A0FDF73BFC05F10800BDE8F087515AC0
:104750008B429AD80020F8E72C0000202E2E2F4DF7
:104760006964646C6577617265732F5468697264FB
:104770005F50617274792F4C7749502F7372632F99
:10478000636F72652F6D656D2E6300006D656D5FE3
:104790006D616C6C6F633A20216C667265652D3EAD
:1047A0007573656400000000417373657274696F0E
:1047B0006E2022257322206661696C656420617415
:1047C000206C696E6520256420696E2025730A00BF
:1047D0006D656D5F6D616C6C6F633A20616C6C6FC1
:1047E0006361746564206D656D6F7279206E6F749E
:1047F0002061626F76652072616D5F656E642E0068
:104800006D656D5F6D616C6C6F633A20616C6C6F90
:104810006361746564206D656D6F72792070726F6D
:104820007065726C7920616C69676E65642E00003A
:104830006D656D5F6D616C6C6F633A2073616E695D
:10484000747920636865636B20616C69676E6D6560
:104850006E7400002DE9F04705464FF6FC70C91C48
:1048600001EA00044FF4C86A0C2C01D20C2401E0C8
:10487000544528D8334F3868854202D3786885423A
:1048800006D331A340F2F3123BA141A0FDF796FB02
:10489000386885423ED379688D423BD2A5F108063F
:1048A000B846301A87B23088C01B08381FFA80F922
:1048B0004C4506D924A340F206223FA134A0FDF7BF
:1048C0007DFB4C4503D94FF00000BDE8F08721D0B7
:1048D0003288D8F80010404602EB01084FF0000380
:1048E00098F80420C2B104F114024A4512D83A19CA
:1048F000083294B2D0F808C00A19624500D282602A
:10490000137130881080578034801088504501D052
:10491000891C44522846D8E73A1908328468B8F806
:1049200000C092B2444501D18C188460881803718C
:10493000A0F800C04780328000885045EAD0891C2A
:104940004252E7E72C0000202E2E2F4D6964646C44
:104950006577617265732F54686972645F50617224
:1049600074792F4C7749502F7372632F636F726580
:104970002F6D656D2E6300006D656D5F7472696DDE
:104980003A206C6567616C206D656D6F727900000F
:10499000417373657274696F6E20222573222066DD
:1049A00061696C6564206174206C696E65202564A2
:1049B00020696E2025730A006D656D5F7472696DE4
:1049C0002063616E206F6E6C7920736872696E6B04
:1049D000206D656D6F727900092806D307A340F238
:1049E000DB1212A118A0FDF7E9BA002904D0204A71
:1049F00052F82000FDF7FCBB704700002E2E2F4D13
:104A00006964646C6577617265732F546869726458
:104A10005F50617274792F4C7749502F7372632FF6
:104A2000636F72652F6D656D702E63006D656D70BF
:104A30005F667265653A2074797065203C204D454B
:104A40004D505F4D41580000417373657274696F3A
:104A50006E2022257322206661696C656420617472
:104A6000206C696E6520256420696E2025730A001C
:104A7000E8A4000830B5064D002400BF55F8240016
:104A800000F008F8641CA4B2092CF7D330BD000074
:104A9000E8A400088268002111604168C91C21F067
:104AA0000301002207E08368521C1B680B608368C7
:104AB00019600388194443889342F4DC704700006E
:104AC00010B5092808D308A340F2871212A11AA032
:104AD000FDF774FA002010BD214951F82000BDE80F
:104AE0001040FDF7D3BB00002E2E2F4D6964646C7F
:104AF0006577617265732F54686972645F50617283
:104B000074792F4C7749502F7372632F636F7265DE
:104B10002F6D656D702E63006D656D705F6D616CDE
:104B20006C6F633A2074797065203C204D454D5080
:104B30005F4D415800000000417373657274696FE6
:104B40006E2022257322206661696C656420617481
:104B5000206C696E6520256420696E2025730A002B
:104B6000E8A400082DE9F047044608A8984690E814
:104B7000E00091468A46002E05D114A3FB2220A115
:104B800025A0FDF71BFA00206060A060E06084F8BB
:104B90002B00032084F82000E561294D43464A4656
:104BA000287884F82E00401C287051462046276142
:104BB00000F056F82046B04710B10020BDE8F0875D
:104BC0006868206020466C60F8E700002E2E2F4DAC
:104BD0006964646C6577617265732F546869726487
:104BE0005F50617274792F4C7749502F7372632F25
:104BF000636F72652F6E657469662E630000000036
:104C00004E6F20696E69742066756E6374696F6E8D
:104C100020676976656E0000417373657274696F11
:104C20006E2022257322206661696C6564206174A0
:104C3000206C696E6520256420696E2025730A004A
:104C40005C0000207047C90709D04168002906D0E0
:104C500090F82B10090702D5011DFEF743B87047E5
:104C60002DE9F0411E46054617460C000FD020687E
:104C700068B11146284600F04FF83146284600F04A
:104C800026F821462846BDE8F04100F025B8284620
:104C900000F022F83946284600F03EF83146284612
:104CA000BDE8F04100F013B801498860704700008A
:104CB0005C00002090F82B10CA0707D021F00101FA
:104CC00080F82B10090701D5FDF732BB704701B101
:104CD0000968C1607047000038B50C00054601D076
:104CE000206801E00B4800680090696888420ED097
:104CF0006946281D02F0F6FA6946281D05F092FB68
:104D000034B12068686001212846FFF79CFF38BD58
:104D10000020F7E778A5000801B1096881607047B5
:104D200090F82B10CA0708D141F0010180F82B1030
:104D3000490702D50321FFF786BF70472DE9F84FD9
:104D400016460F4605281FD2DFE800F003050709C5
:104D50000900362504E0222502E00E2500E00025AA
:104D60004FF001094FF00008002E7DD0012E7CD0BD
:104D7000022EFCD0032E0CD068A34FF4C67273A190
:104D800079A0FDF71BF9C7E064A34FF48B7280A1F3
:104D9000F6E70820FFF794FEDFF810B2040038D0E1
:104DA00060191330267320F00300C4E900808007E7
:104DB00006D05AA34FF494727DA16BA0FDF7FEF8C4
:104DC000ED1C25F00300C0F514702781B84200D90E
:104DD000384660816168014404F518700090814292
:104DE00006D94EA34FF497727DA15FA0FDF7E6F8B8
:104DF0009420B0EB950F06D148A340F2311285A163
:104E000059A0FDF7DBF8A4F80E906189A2467F1A3D
:104E100042E08BF800907FE00820FFF751FE05008C
:104E20003DD02E7385F80D80C5F800804FF6FF70D9
:104E3000CAF80050874206DB38A34FF4A67282A15D
:104E400049A0FDF7BBF8B8B24FF41471288188422D
:104E500000D30846688105F110006860800709D01A
:104E60002EA340F2511201E01FE042E07BA13EA0E0
:104E7000FDF7A4F86189606801440098814206D971
:104E800026A340F2531256A137A0FDF797F8A5F8D4
:104E90000E906889AA463F1A002FBDDC35E08BF8DA
:104EA0000090204600F0A6FB36E005F1130020F04C
:104EB0000302F81C20F00301501880B281422BD865
:104EC000FFF7CAFB040027D06019133020F003015C
:104ED000616027816781C4F8008084F80C808807AE
:104EE00013D00EA34FF4BB7268A11FA0FDF766F8A4
:104EF0000BE00720FFF7E4FD04000DD0C4F80480A8
:104F000027816781C4F800802673A4F80E9084F886
:104F10000D802046BDE8F88F0020FBE72E2E2F4D98
:104F20006964646C6577617265732F546869726433
:104F30005F50617274792F4C7749502F7372632FD1
:104F4000636F72652F706275662E6300706275669E
:104F50005F616C6C6F633A206572726F6E656F751E
:104F60007320747970650000417373657274696FA2
:104F70006E2022257322206661696C65642061744D
:104F8000206C696E6520256420696E2025730A00F7
:104F9000706275665F616C6C6F633A206261642059
:104FA00070627566206C617965720000680000208F
:104FB000706275665F616C6C6F633A2070627566D3
:104FC00020702D3E7061796C6F61642070726F701B
:104FD00065726C7920616C69676E65640000000021
:104FE000636865636B20702D3E7061796C6F6164DE
:104FF000202B20702D3E6C656E20646F6573206ED3
:105000006F74206F766572666C6F7720706275665C
:1050100000000000504255465F504F4F4C5F4255D4
:105020004653495A45206D75737420626520626944
:1050300067676572207468616E204D454D5F414C15
:1050400049474E4D454E540072656D5F6C656E204C
:105050003C206D61785F7531365F740070627566F3
:105060005F616C6C6F633A207062756620712D3ED3
:105070007061796C6F61642070726F7065726C79A9
:1050800020616C69676E656400000000706275667F
:105090005F616C6C6F633A20706275662D3E706163
:1050A000796C6F61642070726F7065726C792061C9
:1050B0006C69676E6564000070B5DDE9044505281C
:1050C00013D2DFE800F0030507090900362004E0E9
:1050D000222002E00E2000E00020C01C20F003008F
:1050E0004618AE4209D9002070BD0CA340F2C5128B
:1050F00016A11FA0FCF762FFF5E700251D6014B1A3
:105100002044586000E05D60022058731981598185
:105110001A730120D881184670BD00002E2E2F4D25
:105120006964646C6577617265732F546869726431
:105130005F50617274792F4C7749502F7372632FCF
:10514000636F72652F706275662E6300706275669C
:105150005F616C6C6F6365645F637573746F6D3AE8
:10516000206261642070627566206C6179657200EE
:10517000417373657274696F6E20222573222066F5
:1051800061696C6564206174206C696E65202564BA
:1051900020696E2025730A0070B50D4608B1002DF8
:1051A00008D1BDE8704014A34FF453721EA12CA087
:1051B000FCF704BF0446006820B121892A89114404
:1051C0002181F7E72089618988420FD00AA340F244
:1051D00055322DA122A0FCF7F1FE206830B106A3C4
:1051E00040F2563234A11EA0FCF7E8FE208929893E
:1051F00008442081256070BD2E2E2F4D6964646C9B
:105200006577617265732F54686972645F5061726B
:1052100074792F4C7749502F7372632F636F7265C7
:105220002F706275662E6300286820213D204E5540
:105230004C4C2920262620287420213D204E554CF8
:105240004C29202870726F6772616D6D65722076CF
:10525000696F6C617465732041504929000000003A
:10526000417373657274696F6E2022257322206604
:1052700061696C6564206174206C696E65202564C9
:1052800020696E2025730A00702D3E746F745F6C68
:10529000656E203D3D20702D3E6C656E20286F664A
:1052A000206C617374207062756620696E2063687B
:1052B00061696E2900000000702D3E6E65787420D3
:1052C0003D3D204E554C4C0010B50C46FFF764FF99
:1052D0002046BDE8104000F0B9BB002102E0491CA7
:1052E000006889B20028FAD1084670472DE9F047D6
:1052F0004FF000070C4605003E466FF00F0904D042
:105300001CB128892189884204D235A34FF46F72D9
:105310003FA14AE06FF0050A6889C11B6089801BC4
:10532000814201DB80B200E088B28046606842467C
:10533000811968683844FAF772FF07EB080087B2F2
:1053400006EB080086B26889B84206D224A340F270
:10535000CD323BA140A0FCF731FE6089B04206D2BD
:105360001FA340F2CE3246A13BA0FCF727FE608986
:10537000B04201D8246800266889B84202D12D685D
:10538000002765B1002C16D060892189884212D18E
:10539000206800280FD012A340F2DD3215E0002C67
:1053A0001BD00FA34FF476723CA12BA0FCF706FE96
:1053B0004846BDE8F08775B16889298988420AD1D5
:1053C000286840B106A340F2E23238A122A0FCF7DF
:1053D000F5FD5046EDE7002C9ED10020E9E70000E6
:1053E0002E2E2F4D6964646C6577617265732F543E
:1053F000686972645F50617274792F4C7749502FDD
:105400007372632F636F72652F706275662E63000F
:10541000706275665F636F70793A20746172676558
:1054200074206E6F742062696720656E6F7567689F
:1054300020746F20686F6C6420736F7572636500F1
:105440006F66667365745F746F203C3D20705F7497
:105450006F2D3E6C656E0000417373657274696FE9
:105460006E2022257322206661696C656420617458
:10547000206C696E6520256420696E2025730A0002
:105480006F66667365745F66726F6D203C3D207059
:105490005F66726F6D2D3E6C656E0000705F746F9D
:1054A00020213D204E554C4C000000007062756676
:1054B0005F636F7079282920646F6573206E6F7445
:1054C00020616C6C6F77207061636B6574207175FF
:1054D00065756573210000002DE9F0471646894681
:1054E0004FF0000828B1B9F1000F07D0002704469B
:1054F0002CE019A340F2FE3223A103E016A340F2F0
:10550000FF3229A131A0FCF759FD0020BDE8F0874A
:105510002BB16089984202D8181A83B215E06089CD
:10552000C01A85B2B54200D9354660682A46C1180E
:1055300009EB0700FAF773FE08EB05001FFA80F885
:10554000781987B2701B86B2002324680EB1002C34
:10555000DED14046DAE700002E2E2F4D6964646CE0
:105560006577617265732F54686972645F50617208
:1055700074792F4C7749502F7372632F636F726564
:105580002F706275662E6300706275665F636F7060
:10559000795F7061727469616C3A20696E76616CD2
:1055A0006964206275660000706275665F636F7083
:1055B000795F7061727469616C3A20696E76616CB2
:1055C0006964206461746170747200004173736572
:1055D0007274696F6E2022257322206661696C6582
:1055E00064206174206C696E6520256420696E20DA
:1055F00025730A0070B5040013D0207B00280CD05E
:1056000001280AD0022808D0032806D024A34FF48A
:1056100037722FA134A0FCF7D1FC0025E08948B1F6
:105620000FE01FA340F2D22239A12FA0FCF7C6FC45
:10563000002070BD1AA340F2EB2238A12AA0FCF78B
:10564000BDFCE089401E0004000CE0811ED1617B9E
:10565000207B266889070CD5206930B910A340F259
:10566000F92234A120A0FCF7A9FC21692046884733
:1056700008E003280CD001280DD002280BD02046CA
:10568000FEF742FF6D1CEDB23400C7D1284670BD55
:105690002146082001E021460720FFF79DF9F1E7A8
:1056A0002E2E2F4D6964646C6577617265732F547B
:1056B000686972645F50617274792F4C7749502F1A
:1056C0007372632F636F72652F706275662E63004D
:1056D000706275665F667265653A2073616E6520FB
:1056E0007479706500000000417373657274696FAE
:1056F0006E2022257322206661696C6564206174C6
:10570000206C696E6520256420696E2025730A006F
:105710007020213D204E554C4C0000007062756693
:105720005F667265653A20702D3E726566203E2088
:105730003000000070632D3E637573746F6D5F669B
:105740007265655F66756E6374696F6E20213D20BA
:105750004E554C4C0000000070B5084800250570FF
:105760000748046806E0206F18B103F0EBFB2567DB
:1057700070BDE468002CF6D170BD00006800002008
:1057800084000020002200F003B80122AFF3008063
:1057900070B516460D46040006D121A340F23F2203
:1057A0002BA12EA0FCF70AFC65B15CB1002D0BDA31
:1057B000684282B26089904207D219A340F2472220
:1057C00030A10FE0002070BDAAB2217B606869B1F2
:1057D00003290BD0022911D001290FD010A340F2C8
:1057E000772230A11DA0FCF7E9FB17E0411B04F173
:1057F00010026160914208D260600FE0002D0BDA68
:10580000618991420AD3401B6060608928446081AD
:10581000208928442081D5E7002EF4D1012070BDD5
:105820002E2E2F4D6964646C6577617265732F54F9
:10583000686972645F50617274792F4C7749502F98
:105840007372632F636F72652F706275662E6300CB
:105850007020213D204E554C4C0000004173736573
:105860007274696F6E2022257322206661696C65EF
:1058700064206174206C696E6520256420696E2047
:1058800025730A00696E6372656D656E745F6D6184
:10589000676E6974756465203C3D20702D3E6C65B3
:1058A0006E00000062616420706275662074797019
:1058B000650000002DE9F0470D46040006D12EA337
:1058C00040F2F31238A13EA0FCF778FB207B0328BE
:1058D0000CD001280AD0002808D0022806D026A320
:1058E0004FF4FA7240A136A0FCF768FB2089A84269
:1058F00040D92E1A4FF6FF7740F20B2840F20F29BD
:1059000014E0281A85B2BE4205DB1BA342463DA126
:105910002BA0FCF753FB20893044208124682CB94C
:1059200015A34A463CA126A0FCF748FB6089A84283
:10593000E7D3207B002815D16089A84212D0607B74
:1059400080070FD4A088001B284481B22046FEF7B0
:1059500081FF040006D108A340F21D2234A118A043
:10596000FCF72CFB65812581206808B1FFF742FE1A
:1059700000202060BDE8F0872E2E2F4D6964646CF6
:105980006577617265732F54686972645F506172E4
:1059900074792F4C7749502F7372632F636F726540
:1059A0002F706275662E6300706275665F72656146
:1059B0006C6C6F633A207020213D204E554C4C009A
:1059C000417373657274696F6E202225732220669D
:1059D00061696C6564206174206C696E6520256462
:1059E00020696E2025730A00706275665F726561BA
:1059F0006C6C6F633A2073616E6520702D3E747914
:105A00007065000067726F77203C206D61785F756C
:105A100031365F7400000000706275665F72656108
:105A20006C6C6F633A207120213D204E554C4C0028
:105A30006D656D5F7472696D2072657475726E65E7
:105A4000642071203D3D204E554C4C0000280CD068
:105A5000C189491C0904090CC18106D103A340F284
:105A600039320EA112A0FCF7A9BA70472E2E2F4D85
:105A70006964646C6577617265732F5468697264D8
:105A80005F50617274792F4C7749502F7372632F76
:105A9000636F72652F706275662E63007062756643
:105AA00020726566206F766572666C6F7700000005
:105AB000417373657274696F6E20222573222066AC
:105AC00061696C6564206174206C696E6520256471
:105AD00020696E2025730A0070B5284D0446286899
